{
  "contractName": "Dex",
  "abi": [
    {
      "inputs": [
        {
          "internalType": "address",
          "name": "_admin",
          "type": "address"
        }
      ],
      "stateMutability": "nonpayable",
      "type": "constructor"
    },
    {
      "inputs": [],
      "name": "admin",
      "outputs": [
        {
          "internalType": "address",
          "name": "",
          "type": "address"
        }
      ],
      "stateMutability": "view",
      "type": "function",
      "constant": true
    },
    {
      "inputs": [
        {
          "internalType": "bytes32",
          "name": "",
          "type": "bytes32"
        }
      ],
      "name": "tokens",
      "outputs": [
        {
          "internalType": "bytes32",
          "name": "ticker",
          "type": "bytes32"
        },
        {
          "internalType": "address",
          "name": "tokenAddress",
          "type": "address"
        }
      ],
      "stateMutability": "view",
      "type": "function",
      "constant": true
    },
    {
      "inputs": [
        {
          "internalType": "uint256",
          "name": "",
          "type": "uint256"
        }
      ],
      "name": "tokensList",
      "outputs": [
        {
          "internalType": "bytes32",
          "name": "",
          "type": "bytes32"
        }
      ],
      "stateMutability": "view",
      "type": "function",
      "constant": true
    },
    {
      "inputs": [
        {
          "internalType": "bytes32",
          "name": "ticker",
          "type": "bytes32"
        },
        {
          "internalType": "address",
          "name": "tokenAddress",
          "type": "address"
        }
      ],
      "name": "addToken",
      "outputs": [],
      "stateMutability": "nonpayable",
      "type": "function"
    },
    {
      "inputs": [
        {
          "internalType": "uint256",
          "name": "amount",
          "type": "uint256"
        },
        {
          "internalType": "bytes32",
          "name": "ticker",
          "type": "bytes32"
        }
      ],
      "name": "deposit",
      "outputs": [],
      "stateMutability": "nonpayable",
      "type": "function"
    }
  ],
  "bytecode": "0x608060405234801561001057600080fd5b50604051610931380380610931833981810160405281019061003291906100dc565b80600360006101000a81548173ffffffffffffffffffffffffffffffffffffffff021916908373ffffffffffffffffffffffffffffffffffffffff16021790555050610109565b600080fd5b600073ffffffffffffffffffffffffffffffffffffffff82169050919050565b60006100a98261007e565b9050919050565b6100b98161009e565b81146100c457600080fd5b50565b6000815190506100d6816100b0565b92915050565b6000602082840312156100f2576100f1610079565b5b6000610100848285016100c7565b91505092915050565b610819806101186000396000f3fe608060405234801561001057600080fd5b50600436106100575760003560e01c80634d12e34e1461005c578063904194a31461008c5780639776aacf146100bd578063c9630cb0146100d9578063f851a440146100f5575b600080fd5b6100766004803603810190610071919061044b565b610113565b6040516100839190610491565b60405180910390f35b6100a660048036038101906100a191906104d8565b610137565b6040516100b4929190610546565b60405180910390f35b6100d760048036038101906100d2919061059b565b61017b565b005b6100f360048036038101906100ee91906105db565b6102c9565b005b6100fd6103ea565b60405161010a919061061b565b60405180910390f35b6002818154811061012357600080fd5b906000526020600020016000915090505481565b60006020528060005260406000206000915090508060000154908060010160009054906101000a900473ffffffffffffffffffffffffffffffffffffffff16905082565b600360009054906101000a900473ffffffffffffffffffffffffffffffffffffffff1673ffffffffffffffffffffffffffffffffffffffff163373ffffffffffffffffffffffffffffffffffffffff161461020b576040517f08c379a000000000000000000000000000000000000000000000000000000000815260040161020290610693565b60405180910390fd5b60405180604001604052808381526020018273ffffffffffffffffffffffffffffffffffffffff168152506000808481526020019081526020016000206000820151816000015560208201518160010160006101000a81548173ffffffffffffffffffffffffffffffffffffffff021916908373ffffffffffffffffffffffffffffffffffffffff16021790555090505060028290806001815401808255809150506001900390600052602060002001600090919091909150555050565b60008082815260200190815260200160002060010160009054906101000a900473ffffffffffffffffffffffffffffffffffffffff1673ffffffffffffffffffffffffffffffffffffffff166323b872dd3330856040518463ffffffff1660e01b815260040161033b939291906106c2565b6020604051808303816000875af115801561035a573d6000803e3d6000fd5b505050506040513d601f19601f8201168201806040525081019061037e9190610731565b5081600160003373ffffffffffffffffffffffffffffffffffffffff1673ffffffffffffffffffffffffffffffffffffffff168152602001908152602001600020600083815260200190815260200160002060008282546103df919061078d565b925050819055505050565b600360009054906101000a900473ffffffffffffffffffffffffffffffffffffffff1681565b600080fd5b6000819050919050565b61042881610415565b811461043357600080fd5b50565b6000813590506104458161041f565b92915050565b60006020828403121561046157610460610410565b5b600061046f84828501610436565b91505092915050565b6000819050919050565b61048b81610478565b82525050565b60006020820190506104a66000830184610482565b92915050565b6104b581610478565b81146104c057600080fd5b50565b6000813590506104d2816104ac565b92915050565b6000602082840312156104ee576104ed610410565b5b60006104fc848285016104c3565b91505092915050565b600073ffffffffffffffffffffffffffffffffffffffff82169050919050565b600061053082610505565b9050919050565b61054081610525565b82525050565b600060408201905061055b6000830185610482565b6105686020830184610537565b9392505050565b61057881610525565b811461058357600080fd5b50565b6000813590506105958161056f565b92915050565b600080604083850312156105b2576105b1610410565b5b60006105c0858286016104c3565b92505060206105d185828601610586565b9150509250929050565b600080604083850312156105f2576105f1610410565b5b600061060085828601610436565b9250506020610611858286016104c3565b9150509250929050565b60006020820190506106306000830184610537565b92915050565b600082825260208201905092915050565b7f6f6e6c792061646d696e00000000000000000000000000000000000000000000600082015250565b600061067d600a83610636565b915061068882610647565b602082019050919050565b600060208201905081810360008301526106ac81610670565b9050919050565b6106bc81610415565b82525050565b60006060820190506106d76000830186610537565b6106e46020830185610537565b6106f160408301846106b3565b949350505050565b60008115159050919050565b61070e816106f9565b811461071957600080fd5b50565b60008151905061072b81610705565b92915050565b60006020828403121561074757610746610410565b5b60006107558482850161071c565b91505092915050565b7f4e487b7100000000000000000000000000000000000000000000000000000000600052601160045260246000fd5b600061079882610415565b91506107a383610415565b9250827fffffffffffffffffffffffffffffffffffffffffffffffffffffffffffffffff038211156107d8576107d761075e565b5b82820190509291505056fea264697066735822122017cbf72995dae2d524854169433dba4d0c0c244b4bed9babb377e76340c28b7064736f6c634300080e0033",
  "immutableReferences": {},
  "source": "// SPDX-License-Identifier: MIT\r\npragma solidity ^0.8.0;\r\nimport \"@openzeppelin/contracts/token/ERC20/IERC20.sol\";\r\n\r\ncontract Dex {\r\n    struct Token {\r\n        bytes32 ticker;\r\n        address tokenAddress;\r\n    }\r\n\r\n    mapping(bytes32 => Token) public tokens;\r\n    mapping(address => mapping(bytes32 => uint)) traderBalances;\r\n    bytes32[] public tokensList;\r\n\r\n    address public admin;\r\n\r\n    constructor (address _admin) {\r\n        admin = _admin;\r\n    }\r\n\r\n    function addToken(bytes32 ticker, address tokenAddress) onlyAdmin external {\r\n        tokens[ticker] = Token(ticker, tokenAddress);\r\n        tokensList.push(ticker);\r\n    }\r\n\r\n    function deposit(uint amount, bytes32 ticker) external {\r\n        // transferFrom needs an approval -> from UI\r\n        IERC20(tokens[ticker].tokenAddress).transferFrom(\r\n            msg.sender,\r\n            address(this),\r\n            amount\r\n        );\r\n\r\n        traderBalances[msg.sender][ticker] += amount;\r\n    }\r\n\r\n    modifier onlyAdmin() {\r\n        require(msg.sender == admin, 'only admin');\r\n        _;\r\n    }\r\n}",
  "sourcePath": "D:\\web3\\wallet\\contracts\\Dex.sol",
  "compiler": {
    "name": "solc",
    "version": "0.8.14+commit.80d49f37.Emscripten.clang"
  },
  "schemaVersion": "3.4.7",
  "updatedAt": "2022-09-18T19:35:17.923Z",
  "networkType": "ethereum",
  "devdoc": {
    "kind": "dev",
    "methods": {},
    "version": 1
  },
  "userdoc": {
    "kind": "user",
    "methods": {},
    "version": 1
  }
}