{
  "contractName": "Dex",
  "abi": [
    {
      "inputs": [
        {
          "internalType": "address",
          "name": "_admin",
          "type": "address"
        }
      ],
      "stateMutability": "nonpayable",
      "type": "constructor"
    },
    {
      "anonymous": false,
      "inputs": [
        {
          "indexed": false,
          "internalType": "uint256",
          "name": "tradeId",
          "type": "uint256"
        },
        {
          "indexed": false,
          "internalType": "uint256",
          "name": "orderId",
          "type": "uint256"
        },
        {
          "indexed": true,
          "internalType": "bytes32",
          "name": "ticker",
          "type": "bytes32"
        },
        {
          "indexed": true,
          "internalType": "address",
          "name": "trader1",
          "type": "address"
        },
        {
          "indexed": true,
          "internalType": "address",
          "name": "trader2",
          "type": "address"
        },
        {
          "indexed": false,
          "internalType": "uint256",
          "name": "amount",
          "type": "uint256"
        },
        {
          "indexed": false,
          "internalType": "uint256",
          "name": "price",
          "type": "uint256"
        },
        {
          "indexed": false,
          "internalType": "uint256",
          "name": "date",
          "type": "uint256"
        }
      ],
      "name": "NewTrade",
      "type": "event"
    },
    {
      "inputs": [],
      "name": "admin",
      "outputs": [
        {
          "internalType": "address",
          "name": "",
          "type": "address"
        }
      ],
      "stateMutability": "view",
      "type": "function"
    },
    {
      "inputs": [],
      "name": "nextOrderId",
      "outputs": [
        {
          "internalType": "uint256",
          "name": "",
          "type": "uint256"
        }
      ],
      "stateMutability": "view",
      "type": "function"
    },
    {
      "inputs": [],
      "name": "nextTradeId",
      "outputs": [
        {
          "internalType": "uint256",
          "name": "",
          "type": "uint256"
        }
      ],
      "stateMutability": "view",
      "type": "function"
    },
    {
      "inputs": [
        {
          "internalType": "bytes32",
          "name": "",
          "type": "bytes32"
        }
      ],
      "name": "tokens",
      "outputs": [
        {
          "internalType": "bytes32",
          "name": "ticker",
          "type": "bytes32"
        },
        {
          "internalType": "address",
          "name": "tokenAddress",
          "type": "address"
        }
      ],
      "stateMutability": "view",
      "type": "function"
    },
    {
      "inputs": [
        {
          "internalType": "uint256",
          "name": "",
          "type": "uint256"
        }
      ],
      "name": "tokensList",
      "outputs": [
        {
          "internalType": "bytes32",
          "name": "",
          "type": "bytes32"
        }
      ],
      "stateMutability": "view",
      "type": "function"
    },
    {
      "inputs": [
        {
          "internalType": "bytes32",
          "name": "ticker",
          "type": "bytes32"
        },
        {
          "internalType": "address",
          "name": "tokenAddress",
          "type": "address"
        }
      ],
      "name": "addToken",
      "outputs": [],
      "stateMutability": "nonpayable",
      "type": "function"
    },
    {
      "inputs": [
        {
          "internalType": "uint256",
          "name": "amount",
          "type": "uint256"
        },
        {
          "internalType": "bytes32",
          "name": "ticker",
          "type": "bytes32"
        }
      ],
      "name": "deposit",
      "outputs": [],
      "stateMutability": "nonpayable",
      "type": "function"
    },
    {
      "inputs": [
        {
          "internalType": "uint256",
          "name": "amount",
          "type": "uint256"
        },
        {
          "internalType": "bytes32",
          "name": "ticker",
          "type": "bytes32"
        }
      ],
      "name": "withdraw",
      "outputs": [],
      "stateMutability": "nonpayable",
      "type": "function"
    },
    {
      "inputs": [
        {
          "internalType": "bytes32",
          "name": "ticker",
          "type": "bytes32"
        },
        {
          "internalType": "uint256",
          "name": "amount",
          "type": "uint256"
        },
        {
          "internalType": "uint256",
          "name": "price",
          "type": "uint256"
        },
        {
          "internalType": "enum Dex.Side",
          "name": "side",
          "type": "uint8"
        }
      ],
      "name": "createLimitOrder",
      "outputs": [],
      "stateMutability": "nonpayable",
      "type": "function"
    },
    {
      "inputs": [
        {
          "internalType": "bytes32",
          "name": "ticker",
          "type": "bytes32"
        },
        {
          "internalType": "uint256",
          "name": "amount",
          "type": "uint256"
        },
        {
          "internalType": "enum Dex.Side",
          "name": "side",
          "type": "uint8"
        }
      ],
      "name": "createMarketOrder",
      "outputs": [],
      "stateMutability": "nonpayable",
      "type": "function"
    }
  ],
  "bytecode": "0x60806040523480156200001157600080fd5b5060405162002d3d38038062002d3d8339818101604052810190620000379190620000e9565b80600460006101000a81548173ffffffffffffffffffffffffffffffffffffffff021916908373ffffffffffffffffffffffffffffffffffffffff160217905550506200011b565b600080fd5b600073ffffffffffffffffffffffffffffffffffffffff82169050919050565b6000620000b18262000084565b9050919050565b620000c381620000a4565b8114620000cf57600080fd5b50565b600081519050620000e381620000b8565b92915050565b6000602082840312156200010257620001016200007f565b5b60006200011284828501620000d2565b91505092915050565b612c12806200012b6000396000f3fe608060405234801561001057600080fd5b506004361061009e5760003560e01c80639776aacf116100665780639776aacf1461015c578063a8d2021a14610178578063c9630cb014610194578063d9c0c950146101b0578063f851a440146101cc5761009e565b80632a58b330146100a35780634d12e34e146100c15780637f2c6246146100f1578063813ad0831461010d578063904194a31461012b575b600080fd5b6100ab6101ea565b6040516100b8919061232d565b60405180910390f35b6100db60048036038101906100d69190612379565b6101f0565b6040516100e891906123bf565b60405180910390f35b61010b6004803603810190610106919061242b565b610214565b005b6101156113ab565b604051610122919061232d565b60405180910390f35b6101456004803603810190610140919061247e565b6113b1565b6040516101539291906124ec565b60405180910390f35b61017660048036038101906101719190612541565b6113f5565b005b610192600480360381019061018d9190612581565b611543565b005b6101ae60048036038101906101a99190612581565b6117eb565b005b6101ca60048036038101906101c591906125c1565b611a02565b005b6101d46122ac565b6040516101e19190612628565b60405180910390f35b60055481565b6003818154811061020057600080fd5b906000526020600020016000915090505481565b82600073ffffffffffffffffffffffffffffffffffffffff1660008083815260200190815260200160002060010160009054906101000a900473ffffffffffffffffffffffffffffffffffffffff1673ffffffffffffffffffffffffffffffffffffffff16036102b9576040517f08c379a00000000000000000000000000000000000000000000000000000000081526004016102b0906126a0565b60405180910390fd5b837f4441490000000000000000000000000000000000000000000000000000000000810361031c576040517f08c379a00000000000000000000000000000000000000000000000000000000081526004016103139061270c565b60405180910390fd5b60018081111561032f5761032e61272c565b5b8360018111156103425761034161272c565b5b036103db5783600160003373ffffffffffffffffffffffffffffffffffffffff1673ffffffffffffffffffffffffffffffffffffffff16815260200190815260200160002060008781526020019081526020016000205410156103da576040517f08c379a00000000000000000000000000000000000000000000000000000000081526004016103d1906127a7565b60405180910390fd5b5b60006002600087815260200190815260200160002060006001808111156104055761040461272c565b5b8660018111156104185761041761272c565b5b14610424576001610427565b60005b60018111156104395761043861272c565b5b815260200190815260200160002090506000808690505b8280549050821080156104635750600081115b1561112a5760006104c58484815481106104805761047f6127c7565b5b9060005260206000209060070201600401548585815481106104a5576104a46127c7565b5b9060005260206000209060070201600301546122d290919063ffffffff16565b905060008282116104d657816104d8565b825b90506104ed81846122d290919063ffffffff16565b925061052681868681548110610506576105056127c7565b5b9060005260206000209060070201600401546122e890919063ffffffff16565b858581548110610539576105386127c7565b5b9060005260206000209060070201600401819055503373ffffffffffffffffffffffffffffffffffffffff16858581548110610578576105776127c7565b5b906000526020600020906007020160010160009054906101000a900473ffffffffffffffffffffffffffffffffffffffff1673ffffffffffffffffffffffffffffffffffffffff168b7fdb0c486e680ba8026643e6a85f8d157b5e7bcd4b32b54d564542570a9eb204166006548989815481106105f8576105f76127c7565b5b906000526020600020906007020160000154868b8b8154811061061e5761061d6127c7565b5b906000526020600020906007020160050154426040516106429594939291906127f6565b60405180910390a460018081111561065d5761065c61272c565b5b8860018111156106705761066f61272c565b5b03610b44576106d881600160003373ffffffffffffffffffffffffffffffffffffffff1673ffffffffffffffffffffffffffffffffffffffff16815260200190815260200160002060008d8152602001908152602001600020546122d290919063ffffffff16565b600160003373ffffffffffffffffffffffffffffffffffffffff1673ffffffffffffffffffffffffffffffffffffffff16815260200190815260200160002060008c8152602001908152602001600020819055506107de858581548110610742576107416127c7565b5b9060005260206000209060070201600501548261075f9190612878565b600160003373ffffffffffffffffffffffffffffffffffffffff1673ffffffffffffffffffffffffffffffffffffffff16815260200190815260200160002060007f44414900000000000000000000000000000000000000000000000000000000008152602001908152602001600020546122e890919063ffffffff16565b600160003373ffffffffffffffffffffffffffffffffffffffff1673ffffffffffffffffffffffffffffffffffffffff16815260200190815260200160002060007f44414900000000000000000000000000000000000000000000000000000000008152602001908152602001600020819055506108f9816001600088888154811061086d5761086c6127c7565b5b906000526020600020906007020160010160009054906101000a900473ffffffffffffffffffffffffffffffffffffffff1673ffffffffffffffffffffffffffffffffffffffff1673ffffffffffffffffffffffffffffffffffffffff16815260200190815260200160002060008d8152602001908152602001600020546122e890919063ffffffff16565b600160008787815481106109105761090f6127c7565b5b906000526020600020906007020160010160009054906101000a900473ffffffffffffffffffffffffffffffffffffffff1673ffffffffffffffffffffffffffffffffffffffff1673ffffffffffffffffffffffffffffffffffffffff16815260200190815260200160002060008c815260200190815260200160002081905550610a878585815481106109a7576109a66127c7565b5b906000526020600020906007020160050154826109c49190612878565b600160008888815481106109db576109da6127c7565b5b906000526020600020906007020160010160009054906101000a900473ffffffffffffffffffffffffffffffffffffffff1673ffffffffffffffffffffffffffffffffffffffff1673ffffffffffffffffffffffffffffffffffffffff16815260200190815260200160002060007f44414900000000000000000000000000000000000000000000000000000000008152602001908152602001600020546122d290919063ffffffff16565b60016000878781548110610a9e57610a9d6127c7565b5b906000526020600020906007020160010160009054906101000a900473ffffffffffffffffffffffffffffffffffffffff1673ffffffffffffffffffffffffffffffffffffffff1673ffffffffffffffffffffffffffffffffffffffff16815260200190815260200160002060007f44414900000000000000000000000000000000000000000000000000000000008152602001908152602001600020819055506110f1565b848481548110610b5757610b566127c7565b5b90600052602060002090600702016005015481610b749190612878565b600160003373ffffffffffffffffffffffffffffffffffffffff1673ffffffffffffffffffffffffffffffffffffffff16815260200190815260200160002060007f44414900000000000000000000000000000000000000000000000000000000008152602001908152602001600020541015610c26576040517f08c379a0000000000000000000000000000000000000000000000000000000008152600401610c1d9061291e565b60405180910390fd5b610c8981600160003373ffffffffffffffffffffffffffffffffffffffff1673ffffffffffffffffffffffffffffffffffffffff16815260200190815260200160002060008d8152602001908152602001600020546122e890919063ffffffff16565b600160003373ffffffffffffffffffffffffffffffffffffffff1673ffffffffffffffffffffffffffffffffffffffff16815260200190815260200160002060008c815260200190815260200160002081905550610d8f858581548110610cf357610cf26127c7565b5b90600052602060002090600702016005015482610d109190612878565b600160003373ffffffffffffffffffffffffffffffffffffffff1673ffffffffffffffffffffffffffffffffffffffff16815260200190815260200160002060007f44414900000000000000000000000000000000000000000000000000000000008152602001908152602001600020546122d290919063ffffffff16565b600160003373ffffffffffffffffffffffffffffffffffffffff1673ffffffffffffffffffffffffffffffffffffffff16815260200190815260200160002060007f4441490000000000000000000000000000000000000000000000000000000000815260200190815260200160002081905550610eaa8160016000888881548110610e1e57610e1d6127c7565b5b906000526020600020906007020160010160009054906101000a900473ffffffffffffffffffffffffffffffffffffffff1673ffffffffffffffffffffffffffffffffffffffff1673ffffffffffffffffffffffffffffffffffffffff16815260200190815260200160002060008d8152602001908152602001600020546122d290919063ffffffff16565b60016000878781548110610ec157610ec06127c7565b5b906000526020600020906007020160010160009054906101000a900473ffffffffffffffffffffffffffffffffffffffff1673ffffffffffffffffffffffffffffffffffffffff1673ffffffffffffffffffffffffffffffffffffffff16815260200190815260200160002060008c815260200190815260200160002081905550611038858581548110610f5857610f576127c7565b5b90600052602060002090600702016005015482610f759190612878565b60016000888881548110610f8c57610f8b6127c7565b5b906000526020600020906007020160010160009054906101000a900473ffffffffffffffffffffffffffffffffffffffff1673ffffffffffffffffffffffffffffffffffffffff1673ffffffffffffffffffffffffffffffffffffffff16815260200190815260200160002060007f44414900000000000000000000000000000000000000000000000000000000008152602001908152602001600020546122e890919063ffffffff16565b6001600087878154811061104f5761104e6127c7565b5b906000526020600020906007020160010160009054906101000a900473ffffffffffffffffffffffffffffffffffffffff1673ffffffffffffffffffffffffffffffffffffffff1673ffffffffffffffffffffffffffffffffffffffff16815260200190815260200160002060007f44414900000000000000000000000000000000000000000000000000000000008152602001908152602001600020819055505b61110760016006546122e890919063ffffffff16565b6006819055506111216001856122e890919063ffffffff16565b93505050610450565b600091505b82805490508210801561118957508282815481106111505761114f6127c7565b5b906000526020600020906007020160030154838381548110611175576111746127c7565b5b906000526020600020906007020160040154145b156113a15760008290505b600184805490506111a5919061293e565b8110156112f057836001826111ba9190612972565b815481106111cb576111ca6127c7565b5b90600052602060002090600702018482815481106111ec576111eb6127c7565b5b9060005260206000209060070201600082015481600001556001820160009054906101000a900473ffffffffffffffffffffffffffffffffffffffff168160010160006101000a81548173ffffffffffffffffffffffffffffffffffffffff021916908373ffffffffffffffffffffffffffffffffffffffff1602179055506001820160149054906101000a900460ff168160010160146101000a81548160ff021916908360018111156112a3576112a261272c565b5b0217905550600282015481600201556003820154816003015560048201548160040155600582015481600501556006820154816006015590505080806112e8906129c8565b915050611194565b508280548061130257611301612a10565b5b60019003818190600052602060002090600702016000808201600090556001820160006101000a81549073ffffffffffffffffffffffffffffffffffffffff02191690556001820160146101000a81549060ff0219169055600282016000905560038201600090556004820160009055600582016000905560068201600090555050905561139a6001836122e890919063ffffffff16565b915061112f565b5050505050505050565b60065481565b60006020528060005260406000206000915090508060000154908060010160009054906101000a900473ffffffffffffffffffffffffffffffffffffffff16905082565b600460009054906101000a900473ffffffffffffffffffffffffffffffffffffffff1673ffffffffffffffffffffffffffffffffffffffff163373ffffffffffffffffffffffffffffffffffffffff1614611485576040517f08c379a000000000000000000000000000000000000000000000000000000000815260040161147c90612a8b565b60405180910390fd5b60405180604001604052808381526020018273ffffffffffffffffffffffffffffffffffffffff168152506000808481526020019081526020016000206000820151816000015560208201518160010160006101000a81548173ffffffffffffffffffffffffffffffffffffffff021916908373ffffffffffffffffffffffffffffffffffffffff16021790555090505060038290806001815401808255809150506001900390600052602060002001600090919091909150555050565b80600073ffffffffffffffffffffffffffffffffffffffff1660008083815260200190815260200160002060010160009054906101000a900473ffffffffffffffffffffffffffffffffffffffff1673ffffffffffffffffffffffffffffffffffffffff16036115e8576040517f08c379a00000000000000000000000000000000000000000000000000000000081526004016115df906126a0565b60405180910390fd5b82600160003373ffffffffffffffffffffffffffffffffffffffff1673ffffffffffffffffffffffffffffffffffffffff168152602001908152602001600020600084815260200190815260200160002054101561167b576040517f08c379a000000000000000000000000000000000000000000000000000000000815260040161167290612af7565b60405180910390fd5b6116de83600160003373ffffffffffffffffffffffffffffffffffffffff1673ffffffffffffffffffffffffffffffffffffffff1681526020019081526020016000206000858152602001908152602001600020546122d290919063ffffffff16565b600160003373ffffffffffffffffffffffffffffffffffffffff1673ffffffffffffffffffffffffffffffffffffffff16815260200190815260200160002060008481526020019081526020016000208190555060008083815260200190815260200160002060010160009054906101000a900473ffffffffffffffffffffffffffffffffffffffff1673ffffffffffffffffffffffffffffffffffffffff1663a9059cbb33856040518363ffffffff1660e01b81526004016117a2929190612b17565b6020604051808303816000875af11580156117c1573d6000803e3d6000fd5b505050506040513d601f19601f820116820180604052508101906117e59190612b78565b50505050565b80600073ffffffffffffffffffffffffffffffffffffffff1660008083815260200190815260200160002060010160009054906101000a900473ffffffffffffffffffffffffffffffffffffffff1673ffffffffffffffffffffffffffffffffffffffff1603611890576040517f08c379a0000000000000000000000000000000000000000000000000000000008152600401611887906126a0565b60405180910390fd5b60008083815260200190815260200160002060010160009054906101000a900473ffffffffffffffffffffffffffffffffffffffff1673ffffffffffffffffffffffffffffffffffffffff166323b872dd3330866040518463ffffffff1660e01b815260040161190293929190612ba5565b6020604051808303816000875af1158015611921573d6000803e3d6000fd5b505050506040513d601f19601f820116820180604052508101906119459190612b78565b506119a983600160003373ffffffffffffffffffffffffffffffffffffffff1673ffffffffffffffffffffffffffffffffffffffff1681526020019081526020016000206000858152602001908152602001600020546122e890919063ffffffff16565b600160003373ffffffffffffffffffffffffffffffffffffffff1673ffffffffffffffffffffffffffffffffffffffff168152602001908152602001600020600084815260200190815260200160002081905550505050565b83600073ffffffffffffffffffffffffffffffffffffffff1660008083815260200190815260200160002060010160009054906101000a900473ffffffffffffffffffffffffffffffffffffffff1673ffffffffffffffffffffffffffffffffffffffff1603611aa7576040517f08c379a0000000000000000000000000000000000000000000000000000000008152600401611a9e906126a0565b60405180910390fd5b847f44414900000000000000000000000000000000000000000000000000000000008103611b0a576040517f08c379a0000000000000000000000000000000000000000000000000000000008152600401611b019061270c565b60405180910390fd5b600180811115611b1d57611b1c61272c565b5b836001811115611b3057611b2f61272c565b5b03611bcd5784600160003373ffffffffffffffffffffffffffffffffffffffff1673ffffffffffffffffffffffffffffffffffffffff1681526020019081526020016000206000888152602001908152602001600020541015611bc8576040517f08c379a0000000000000000000000000000000000000000000000000000000008152600401611bbf906127a7565b60405180910390fd5b611c93565b611be084866122fe90919063ffffffff16565b600160003373ffffffffffffffffffffffffffffffffffffffff1673ffffffffffffffffffffffffffffffffffffffff16815260200190815260200160002060007f44414900000000000000000000000000000000000000000000000000000000008152602001908152602001600020541015611c92576040517f08c379a0000000000000000000000000000000000000000000000000000000008152600401611c899061291e565b60405180910390fd5b5b6000600260008881526020019081526020016000206000856001811115611cbd57611cbc61272c565b5b815260200190815260200160002090508060405180610100016040528060055481526020013373ffffffffffffffffffffffffffffffffffffffff168152602001866001811115611d1157611d1061272c565b5b8152602001898152602001888152602001600081526020018781526020014281525090806001815401808255809150506001900390600052602060002090600702016000909190919091506000820151816000015560208201518160010160006101000a81548173ffffffffffffffffffffffffffffffffffffffff021916908373ffffffffffffffffffffffffffffffffffffffff16021790555060408201518160010160146101000a81548160ff02191690836001811115611dd857611dd761272c565b5b0217905550606082015181600201556080820151816003015560a0820151816004015560c0820151816005015560e082015181600601555050600080828054905011611e25576000611e37565b60018280549050611e36919061293e565b5b90505b600081111561228657600180811115611e5657611e5561272c565b5b856001811115611e6957611e6861272c565b5b148015611ec95750818181548110611e8457611e836127c7565b5b90600052602060002090600702016005015482600183611ea4919061293e565b81548110611eb557611eb46127c7565b5b906000526020600020906007020160050154115b61228657600180811115611ee057611edf61272c565b5b856001811115611ef357611ef261272c565b5b148015611f535750818181548110611f0e57611f0d6127c7565b5b90600052602060002090600702016005015482600183611f2e919061293e565b81548110611f3f57611f3e6127c7565b5b906000526020600020906007020160050154105b61228657600082600183611f67919061293e565b81548110611f7857611f776127c7565b5b906000526020600020906007020160405180610100016040529081600082015481526020016001820160009054906101000a900473ffffffffffffffffffffffffffffffffffffffff1673ffffffffffffffffffffffffffffffffffffffff1673ffffffffffffffffffffffffffffffffffffffff1681526020016001820160149054906101000a900460ff1660018111156120175761201661272c565b5b60018111156120295761202861272c565b5b8152602001600282015481526020016003820154815260200160048201548152602001600582015481526020016006820154815250509050828281548110612074576120736127c7565b5b906000526020600020906007020183600184612090919061293e565b815481106120a1576120a06127c7565b5b9060005260206000209060070201600082015481600001556001820160009054906101000a900473ffffffffffffffffffffffffffffffffffffffff168160010160006101000a81548173ffffffffffffffffffffffffffffffffffffffff021916908373ffffffffffffffffffffffffffffffffffffffff1602179055506001820160149054906101000a900460ff168160010160146101000a81548160ff021916908360018111156121585761215761272c565b5b02179055506002820154816002015560038201548160030155600482015481600401556005820154816005015560068201548160060155905050808383815481106121a6576121a56127c7565b5b90600052602060002090600702016000820151816000015560208201518160010160006101000a81548173ffffffffffffffffffffffffffffffffffffffff021916908373ffffffffffffffffffffffffffffffffffffffff16021790555060408201518160010160146101000a81548160ff021916908360018111156122305761222f61272c565b5b0217905550606082015181600201556080820151816003015560a0820151816004015560c0820151816005015560e0820151816006015590505061227e6001836122d290919063ffffffff16565b915050611e3a565b61229c60016005546122e890919063ffffffff16565b6005819055505050505050505050565b600460009054906101000a900473ffffffffffffffffffffffffffffffffffffffff1681565b600081836122e0919061293e565b905092915050565b600081836122f69190612972565b905092915050565b6000818361230c9190612878565b905092915050565b6000819050919050565b61232781612314565b82525050565b6000602082019050612342600083018461231e565b92915050565b600080fd5b61235681612314565b811461236157600080fd5b50565b6000813590506123738161234d565b92915050565b60006020828403121561238f5761238e612348565b5b600061239d84828501612364565b91505092915050565b6000819050919050565b6123b9816123a6565b82525050565b60006020820190506123d460008301846123b0565b92915050565b6123e3816123a6565b81146123ee57600080fd5b50565b600081359050612400816123da565b92915050565b6002811061241357600080fd5b50565b60008135905061242581612406565b92915050565b60008060006060848603121561244457612443612348565b5b6000612452868287016123f1565b935050602061246386828701612364565b925050604061247486828701612416565b9150509250925092565b60006020828403121561249457612493612348565b5b60006124a2848285016123f1565b91505092915050565b600073ffffffffffffffffffffffffffffffffffffffff82169050919050565b60006124d6826124ab565b9050919050565b6124e6816124cb565b82525050565b600060408201905061250160008301856123b0565b61250e60208301846124dd565b9392505050565b61251e816124cb565b811461252957600080fd5b50565b60008135905061253b81612515565b92915050565b6000806040838503121561255857612557612348565b5b6000612566858286016123f1565b92505060206125778582860161252c565b9150509250929050565b6000806040838503121561259857612597612348565b5b60006125a685828601612364565b92505060206125b7858286016123f1565b9150509250929050565b600080600080608085870312156125db576125da612348565b5b60006125e9878288016123f1565b94505060206125fa87828801612364565b935050604061260b87828801612364565b925050606061261c87828801612416565b91505092959194509250565b600060208201905061263d60008301846124dd565b92915050565b600082825260208201905092915050565b7f746f6b656e206973206e6f7420737570706f7274656400000000000000000000600082015250565b600061268a601683612643565b915061269582612654565b602082019050919050565b600060208201905081810360008301526126b98161267d565b9050919050565b7f63616e6e6f742074726164652044414900000000000000000000000000000000600082015250565b60006126f6601083612643565b9150612701826126c0565b602082019050919050565b60006020820190508181036000830152612725816126e9565b9050919050565b7f4e487b7100000000000000000000000000000000000000000000000000000000600052602160045260246000fd5b7f746f6b656e2062616c616e636520746f6f206c6f770000000000000000000000600082015250565b6000612791601583612643565b915061279c8261275b565b602082019050919050565b600060208201905081810360008301526127c081612784565b9050919050565b7f4e487b7100000000000000000000000000000000000000000000000000000000600052603260045260246000fd5b600060a08201905061280b600083018861231e565b612818602083018761231e565b612825604083018661231e565b612832606083018561231e565b61283f608083018461231e565b9695505050505050565b7f4e487b7100000000000000000000000000000000000000000000000000000000600052601160045260246000fd5b600061288382612314565b915061288e83612314565b9250817fffffffffffffffffffffffffffffffffffffffffffffffffffffffffffffffff04831182151516156128c7576128c6612849565b5b828202905092915050565b7f4441492062616c616e636520746f6f206c6f7700000000000000000000000000600082015250565b6000612908601383612643565b9150612913826128d2565b602082019050919050565b60006020820190508181036000830152612937816128fb565b9050919050565b600061294982612314565b915061295483612314565b92508282101561296757612966612849565b5b828203905092915050565b600061297d82612314565b915061298883612314565b9250827fffffffffffffffffffffffffffffffffffffffffffffffffffffffffffffffff038211156129bd576129bc612849565b5b828201905092915050565b60006129d382612314565b91507fffffffffffffffffffffffffffffffffffffffffffffffffffffffffffffffff8203612a0557612a04612849565b5b600182019050919050565b7f4e487b7100000000000000000000000000000000000000000000000000000000600052603160045260246000fd5b7f6f6e6c792061646d696e00000000000000000000000000000000000000000000600082015250565b6000612a75600a83612643565b9150612a8082612a3f565b602082019050919050565b60006020820190508181036000830152612aa481612a68565b9050919050565b7f6e6f7420656e6f7567682062616c616e63650000000000000000000000000000600082015250565b6000612ae1601283612643565b9150612aec82612aab565b602082019050919050565b60006020820190508181036000830152612b1081612ad4565b9050919050565b6000604082019050612b2c60008301856124dd565b612b39602083018461231e565b9392505050565b60008115159050919050565b612b5581612b40565b8114612b6057600080fd5b50565b600081519050612b7281612b4c565b92915050565b600060208284031215612b8e57612b8d612348565b5b6000612b9c84828501612b63565b91505092915050565b6000606082019050612bba60008301866124dd565b612bc760208301856124dd565b612bd4604083018461231e565b94935050505056fea26469706673582212208aa0a0255ba7d1a3c9bf3ef84f6070d743ae7f679305fe6c3857d31fb17d4fa864736f6c634300080e0033",
  "immutableReferences": {},
  "source": "// SPDX-License-Identifier: MIT\r\npragma solidity ^0.8.0;\r\nimport \"@openzeppelin/contracts/token/ERC20/IERC20.sol\";\r\nimport \"@openzeppelin/contracts/utils/math/SafeMath.sol\";\r\n\r\ncontract Dex {\r\n\r\n    using SafeMath for uint;\r\n\r\n    enum Side {\r\n        BUY,\r\n        SELL\r\n    }\r\n\r\n    struct Token {\r\n        bytes32 ticker;\r\n        address tokenAddress;\r\n    }\r\n\r\n    struct Order {\r\n        uint id;\r\n        address trader;\r\n        Side side;\r\n        bytes32 ticker;\r\n        uint amount;\r\n        uint filled;\r\n        uint price;\r\n        uint date;\r\n    }\r\n\r\n    mapping(bytes32 => Token) public tokens;\r\n    mapping(address => mapping(bytes32 => uint)) traderBalances;\r\n    mapping(bytes32 => mapping(uint => Order[])) orderBook; // uint 0/1 for Side, should replace uint with some smaller uint8 probably\r\n    bytes32[] public tokensList;\r\n\r\n    address public admin;\r\n    uint public nextOrderId;\r\n    uint public nextTradeId;\r\n\r\n    bytes32 constant DAI = bytes32('DAI');\r\n\r\n    event NewTrade(\r\n        uint tradeId,\r\n        uint orderId,\r\n        bytes32 indexed ticker,\r\n        address indexed trader1,\r\n        address indexed trader2,\r\n        uint amount,\r\n        uint price,\r\n        uint date\r\n    );\r\n\r\n    constructor (address _admin) {\r\n        admin = _admin;\r\n    }\r\n\r\n    function addToken(bytes32 ticker, address tokenAddress) onlyAdmin external {\r\n        tokens[ticker] = Token(ticker, tokenAddress);\r\n        tokensList.push(ticker);\r\n    }\r\n\r\n    function deposit(uint amount, bytes32 ticker) tokenExist(ticker) external {\r\n        // transferFrom needs an approval -> from UI\r\n        IERC20(tokens[ticker].tokenAddress).transferFrom(\r\n            msg.sender,\r\n            address(this),\r\n            amount\r\n        );\r\n\r\n        traderBalances[msg.sender][ticker] = traderBalances[msg.sender][ticker].add(amount);\r\n    }\r\n\r\n    function withdraw (uint amount, bytes32 ticker) tokenExist(ticker) external {\r\n        require(traderBalances[msg.sender][ticker] >= amount, 'not enough balance');\r\n        traderBalances[msg.sender][ticker] = traderBalances[msg.sender][ticker].sub(amount);\r\n\r\n        IERC20(tokens[ticker].tokenAddress).transfer(msg.sender, amount);\r\n    }\r\n\r\n    function createLimitOrder(\r\n        bytes32 ticker,\r\n        uint amount,\r\n        uint price,\r\n        Side side\r\n    ) tokenExist(ticker) tokenIsNotDai(ticker) external {\r\n        \r\n        if (side == Side.SELL) {\r\n            require(traderBalances[msg.sender][ticker] >= amount, 'token balance too low');\r\n\r\n        } else {\r\n            require(traderBalances[msg.sender][DAI] >= amount.mul(price), 'DAI balance too low');\r\n        }\r\n\r\n        Order[] storage orders = orderBook[ticker][uint(side)];\r\n\r\n        orders.push(Order(\r\n            nextOrderId,\r\n            msg.sender,\r\n            side,\r\n            ticker,\r\n            amount,\r\n            0,\r\n            price,\r\n            block.timestamp\r\n        ));\r\n\r\n        uint i = orders.length > 0 ? orders.length - 1 : 0;\r\n\r\n        while (i > 0) {\r\n            if(side == Side.SELL  && orders[i - 1].price > orders[i].price) {\r\n                break;\r\n            }\r\n            if(side == Side.SELL && orders[i - 1].price < orders[i].price) {\r\n                break;\r\n            }\r\n\r\n            Order memory order = orders[i - 1];\r\n            orders[i - 1] = orders[i];\r\n            orders[i] = order;\r\n\r\n            i = i.sub(1);\r\n        }\r\n        nextOrderId = nextOrderId.add(1);\r\n    }\r\n\r\n    function createMarketOrder(\r\n        bytes32 ticker,\r\n        uint amount,\r\n        Side side\r\n    ) \r\n    tokenExist(ticker)\r\n    tokenIsNotDai(ticker)\r\n    external {\r\n        if(side == Side.SELL) {\r\n            require(traderBalances[msg.sender][ticker] >= amount, 'token balance too low');\r\n        }\r\n        // BUY: [1,2,3,4,5]\r\n        //SELL: [5,4,3,2,1]\r\n        Order[] storage orders = orderBook[ticker][uint(side == Side.SELL ? Side.BUY : Side.SELL)];\r\n        uint i;\r\n        uint remaining = amount;\r\n        while(i < orders.length && remaining > 0) {\r\n            uint available = orders[i].amount.sub(orders[i].filled);\r\n            uint matched = available > remaining ? remaining : available;\r\n            remaining = remaining.sub(matched);\r\n            orders[i].filled = orders[i].filled.add(matched);\r\n\r\n            emit NewTrade(nextTradeId, orders[i].id, ticker, orders[i].trader, msg.sender, matched, orders[i].price, block.timestamp);\r\n            \r\n            if(side == Side.SELL) {\r\n                traderBalances[msg.sender][ticker] = traderBalances[msg.sender][ticker].sub(matched);\r\n                traderBalances[msg.sender][DAI] = traderBalances[msg.sender][DAI].add(matched * orders[i].price);\r\n                traderBalances[orders[i].trader][ticker] = traderBalances[orders[i].trader][ticker].add(matched);\r\n                traderBalances[orders[i].trader][DAI] = traderBalances[orders[i].trader][DAI].sub(matched * orders[i].price);\r\n            } else {\r\n                require(traderBalances[msg.sender][DAI] >= matched * orders[i].price, 'DAI balance too low');\r\n                traderBalances[msg.sender][ticker] = traderBalances[msg.sender][ticker].add(matched);\r\n                traderBalances[msg.sender][DAI] = traderBalances[msg.sender][DAI].sub(matched * orders[i].price);\r\n                traderBalances[orders[i].trader][ticker] = traderBalances[orders[i].trader][ticker].sub(matched);\r\n                traderBalances[orders[i].trader][DAI] = traderBalances[orders[i].trader][DAI].add(matched * orders[i].price);\r\n            }\r\n            nextTradeId = nextTradeId.add(1);\r\n            i = i.add(1);\r\n        }\r\n\r\n        i = 0;\r\n        while(i < orders.length && orders[i].filled == orders[i].amount) {\r\n            for (uint j = i; j < orders.length - 1; j++) {\r\n                orders[j] = orders[j + 1];\r\n            }\r\n            orders.pop();\r\n            i = i.add(1);\r\n        }\r\n    }\r\n\r\n    modifier tokenIsNotDai (bytes32 ticker) {\r\n        require(ticker != DAI, 'cannot trade DAI');\r\n        _;\r\n    }\r\n\r\n    modifier tokenExist (bytes32 ticker) {\r\n        require(tokens[ticker].tokenAddress != address(0), 'token is not supported');\r\n        _;\r\n    }\r\n\r\n    modifier onlyAdmin() {\r\n        require(msg.sender == admin, 'only admin');\r\n        _;\r\n    }\r\n}",
  "sourcePath": "D:\\web3\\wallet\\contracts\\Dex.sol",
  "compiler": {
    "name": "solc",
    "version": "0.8.14+commit.80d49f37.Emscripten.clang"
  },
  "schemaVersion": "3.4.7",
  "updatedAt": "2022-09-26T10:46:03.156Z",
  "devdoc": {
    "kind": "dev",
    "methods": {},
    "version": 1
  },
  "userdoc": {
    "kind": "user",
    "methods": {},
    "version": 1
  }
}