{
  "contractName": "Dex",
  "abi": [
    {
      "inputs": [
        {
          "internalType": "address",
          "name": "_admin",
          "type": "address"
        }
      ],
      "stateMutability": "nonpayable",
      "type": "constructor"
    },
    {
      "inputs": [],
      "name": "admin",
      "outputs": [
        {
          "internalType": "address",
          "name": "",
          "type": "address"
        }
      ],
      "stateMutability": "view",
      "type": "function",
      "constant": true
    },
    {
      "inputs": [],
      "name": "nextOrderId",
      "outputs": [
        {
          "internalType": "uint256",
          "name": "",
          "type": "uint256"
        }
      ],
      "stateMutability": "view",
      "type": "function",
      "constant": true
    },
    {
      "inputs": [
        {
          "internalType": "bytes32",
          "name": "",
          "type": "bytes32"
        }
      ],
      "name": "tokens",
      "outputs": [
        {
          "internalType": "bytes32",
          "name": "ticker",
          "type": "bytes32"
        },
        {
          "internalType": "address",
          "name": "tokenAddress",
          "type": "address"
        }
      ],
      "stateMutability": "view",
      "type": "function",
      "constant": true
    },
    {
      "inputs": [
        {
          "internalType": "uint256",
          "name": "",
          "type": "uint256"
        }
      ],
      "name": "tokensList",
      "outputs": [
        {
          "internalType": "bytes32",
          "name": "",
          "type": "bytes32"
        }
      ],
      "stateMutability": "view",
      "type": "function",
      "constant": true
    },
    {
      "inputs": [
        {
          "internalType": "bytes32",
          "name": "ticker",
          "type": "bytes32"
        },
        {
          "internalType": "address",
          "name": "tokenAddress",
          "type": "address"
        }
      ],
      "name": "addToken",
      "outputs": [],
      "stateMutability": "nonpayable",
      "type": "function"
    },
    {
      "inputs": [
        {
          "internalType": "uint256",
          "name": "amount",
          "type": "uint256"
        },
        {
          "internalType": "bytes32",
          "name": "ticker",
          "type": "bytes32"
        }
      ],
      "name": "deposit",
      "outputs": [],
      "stateMutability": "nonpayable",
      "type": "function"
    },
    {
      "inputs": [
        {
          "internalType": "uint256",
          "name": "amount",
          "type": "uint256"
        },
        {
          "internalType": "bytes32",
          "name": "ticker",
          "type": "bytes32"
        }
      ],
      "name": "withdraw",
      "outputs": [],
      "stateMutability": "nonpayable",
      "type": "function"
    },
    {
      "inputs": [
        {
          "internalType": "bytes32",
          "name": "ticker",
          "type": "bytes32"
        },
        {
          "internalType": "uint256",
          "name": "amount",
          "type": "uint256"
        },
        {
          "internalType": "uint256",
          "name": "price",
          "type": "uint256"
        },
        {
          "internalType": "enum Dex.Side",
          "name": "side",
          "type": "uint8"
        }
      ],
      "name": "createLimitOrder",
      "outputs": [],
      "stateMutability": "nonpayable",
      "type": "function"
    }
  ],
  "bytecode": "0x60806040523480156200001157600080fd5b5060405162001831380380620018318339818101604052810190620000379190620000e9565b80600460006101000a81548173ffffffffffffffffffffffffffffffffffffffff021916908373ffffffffffffffffffffffffffffffffffffffff160217905550506200011b565b600080fd5b600073ffffffffffffffffffffffffffffffffffffffff82169050919050565b6000620000b18262000084565b9050919050565b620000c381620000a4565b8114620000cf57600080fd5b50565b600081519050620000e381620000b8565b92915050565b6000602082840312156200010257620001016200007f565b5b60006200011284828501620000d2565b91505092915050565b611706806200012b6000396000f3fe608060405234801561001057600080fd5b50600436106100885760003560e01c8063a8d2021a1161005b578063a8d2021a14610128578063c9630cb014610144578063d9c0c95014610160578063f851a4401461017c57610088565b80632a58b3301461008d5780634d12e34e146100ab578063904194a3146100db5780639776aacf1461010c575b600080fd5b61009561019a565b6040516100a29190610ecd565b60405180910390f35b6100c560048036038101906100c09190610f19565b6101a0565b6040516100d29190610f5f565b60405180910390f35b6100f560048036038101906100f09190610fa6565b6101c4565b604051610103929190611014565b60405180910390f35b61012660048036038101906101219190611069565b610208565b005b610142600480360381019061013d91906110a9565b610356565b005b61015e600480360381019061015991906110a9565b6105ae565b005b61017a6004803603810190610175919061110e565b610775565b005b610184610e8e565b6040516101919190611175565b60405180910390f35b60055481565b600381815481106101b057600080fd5b906000526020600020016000915090505481565b60006020528060005260406000206000915090508060000154908060010160009054906101000a900473ffffffffffffffffffffffffffffffffffffffff16905082565b600460009054906101000a900473ffffffffffffffffffffffffffffffffffffffff1673ffffffffffffffffffffffffffffffffffffffff163373ffffffffffffffffffffffffffffffffffffffff1614610298576040517f08c379a000000000000000000000000000000000000000000000000000000000815260040161028f906111ed565b60405180910390fd5b60405180604001604052808381526020018273ffffffffffffffffffffffffffffffffffffffff168152506000808481526020019081526020016000206000820151816000015560208201518160010160006101000a81548173ffffffffffffffffffffffffffffffffffffffff021916908373ffffffffffffffffffffffffffffffffffffffff16021790555090505060038290806001815401808255809150506001900390600052602060002001600090919091909150555050565b80600073ffffffffffffffffffffffffffffffffffffffff1660008083815260200190815260200160002060010160009054906101000a900473ffffffffffffffffffffffffffffffffffffffff1673ffffffffffffffffffffffffffffffffffffffff16036103fb576040517f08c379a00000000000000000000000000000000000000000000000000000000081526004016103f290611259565b60405180910390fd5b82600160003373ffffffffffffffffffffffffffffffffffffffff1673ffffffffffffffffffffffffffffffffffffffff168152602001908152602001600020600084815260200190815260200160002054101561048e576040517f08c379a0000000000000000000000000000000000000000000000000000000008152600401610485906112c5565b60405180910390fd5b82600160003373ffffffffffffffffffffffffffffffffffffffff1673ffffffffffffffffffffffffffffffffffffffff168152602001908152602001600020600084815260200190815260200160002060008282546104ee9190611314565b9250508190555060008083815260200190815260200160002060010160009054906101000a900473ffffffffffffffffffffffffffffffffffffffff1673ffffffffffffffffffffffffffffffffffffffff1663a9059cbb33856040518363ffffffff1660e01b8152600401610565929190611348565b6020604051808303816000875af1158015610584573d6000803e3d6000fd5b505050506040513d601f19601f820116820180604052508101906105a891906113a9565b50505050565b80600073ffffffffffffffffffffffffffffffffffffffff1660008083815260200190815260200160002060010160009054906101000a900473ffffffffffffffffffffffffffffffffffffffff1673ffffffffffffffffffffffffffffffffffffffff1603610653576040517f08c379a000000000000000000000000000000000000000000000000000000000815260040161064a90611259565b60405180910390fd5b60008083815260200190815260200160002060010160009054906101000a900473ffffffffffffffffffffffffffffffffffffffff1673ffffffffffffffffffffffffffffffffffffffff166323b872dd3330866040518463ffffffff1660e01b81526004016106c5939291906113d6565b6020604051808303816000875af11580156106e4573d6000803e3d6000fd5b505050506040513d601f19601f8201168201806040525081019061070891906113a9565b5082600160003373ffffffffffffffffffffffffffffffffffffffff1673ffffffffffffffffffffffffffffffffffffffff16815260200190815260200160002060008481526020019081526020016000206000828254610769919061140d565b92505081905550505050565b83600073ffffffffffffffffffffffffffffffffffffffff1660008083815260200190815260200160002060010160009054906101000a900473ffffffffffffffffffffffffffffffffffffffff1673ffffffffffffffffffffffffffffffffffffffff160361081a576040517f08c379a000000000000000000000000000000000000000000000000000000000815260040161081190611259565b60405180910390fd5b7f4441490000000000000000000000000000000000000000000000000000000000850361087c576040517f08c379a0000000000000000000000000000000000000000000000000000000008152600401610873906114af565b60405180910390fd5b60018081111561088f5761088e6114cf565b5b8260018111156108a2576108a16114cf565b5b0361093f5783600160003373ffffffffffffffffffffffffffffffffffffffff1673ffffffffffffffffffffffffffffffffffffffff168152602001908152602001600020600087815260200190815260200160002054101561093a576040517f08c379a00000000000000000000000000000000000000000000000000000000081526004016109319061154a565b60405180910390fd5b6109fe565b828461094b919061156a565b600160003373ffffffffffffffffffffffffffffffffffffffff1673ffffffffffffffffffffffffffffffffffffffff16815260200190815260200160002060007f444149000000000000000000000000000000000000000000000000000000000081526020019081526020016000205410156109fd576040517f08c379a00000000000000000000000000000000000000000000000000000000081526004016109f490611610565b60405180910390fd5b5b6000600260008781526020019081526020016000206000846001811115610a2857610a276114cf565b5b81526020019081526020016000209050806040518060e001604052806005548152602001856001811115610a5f57610a5e6114cf565b5b8152602001888152602001878152602001600081526020018681526020014281525090806001815401808255809150506001900390600052602060002090600702016000909190919091506000820151816000015560208201518160010160006101000a81548160ff02191690836001811115610adf57610ade6114cf565b5b021790555060408201518160020155606082015181600301556080820151816004015560a0820151816005015560c082015181600601555050600060018280549050610b2b9190611314565b90505b6000811115610e6d57600180811115610b4a57610b496114cf565b5b846001811115610b5d57610b5c6114cf565b5b148015610bbd5750818181548110610b7857610b77611630565b5b90600052602060002090600702016005015482600183610b989190611314565b81548110610ba957610ba8611630565b5b906000526020600020906007020160050154115b610e6d57600180811115610bd457610bd36114cf565b5b846001811115610be757610be66114cf565b5b148015610c475750818181548110610c0257610c01611630565b5b90600052602060002090600702016005015482600183610c229190611314565b81548110610c3357610c32611630565b5b906000526020600020906007020160050154105b610e6d57600082600183610c5b9190611314565b81548110610c6c57610c6b611630565b5b90600052602060002090600702016040518060e0016040529081600082015481526020016001820160009054906101000a900460ff166001811115610cb457610cb36114cf565b5b6001811115610cc657610cc56114cf565b5b8152602001600282015481526020016003820154815260200160048201548152602001600582015481526020016006820154815250509050828281548110610d1157610d10611630565b5b906000526020600020906007020183600184610d2d9190611314565b81548110610d3e57610d3d611630565b5b9060005260206000209060070201600082015481600001556001820160009054906101000a900460ff168160010160006101000a81548160ff02191690836001811115610d8e57610d8d6114cf565b5b0217905550600282015481600201556003820154816003015560048201548160040155600582015481600501556006820154816006015590505080838381548110610ddc57610ddb611630565b5b90600052602060002090600702016000820151816000015560208201518160010160006101000a81548160ff02191690836001811115610e1f57610e1e6114cf565b5b021790555060408201518160020155606082015181600301556080820151816004015560a0820151816005015560c082015181600601559050508180610e649061165f565b92505050610b2e565b60056000815480929190610e8090611688565b919050555050505050505050565b600460009054906101000a900473ffffffffffffffffffffffffffffffffffffffff1681565b6000819050919050565b610ec781610eb4565b82525050565b6000602082019050610ee26000830184610ebe565b92915050565b600080fd5b610ef681610eb4565b8114610f0157600080fd5b50565b600081359050610f1381610eed565b92915050565b600060208284031215610f2f57610f2e610ee8565b5b6000610f3d84828501610f04565b91505092915050565b6000819050919050565b610f5981610f46565b82525050565b6000602082019050610f746000830184610f50565b92915050565b610f8381610f46565b8114610f8e57600080fd5b50565b600081359050610fa081610f7a565b92915050565b600060208284031215610fbc57610fbb610ee8565b5b6000610fca84828501610f91565b91505092915050565b600073ffffffffffffffffffffffffffffffffffffffff82169050919050565b6000610ffe82610fd3565b9050919050565b61100e81610ff3565b82525050565b60006040820190506110296000830185610f50565b6110366020830184611005565b9392505050565b61104681610ff3565b811461105157600080fd5b50565b6000813590506110638161103d565b92915050565b600080604083850312156110805761107f610ee8565b5b600061108e85828601610f91565b925050602061109f85828601611054565b9150509250929050565b600080604083850312156110c0576110bf610ee8565b5b60006110ce85828601610f04565b92505060206110df85828601610f91565b9150509250929050565b600281106110f657600080fd5b50565b600081359050611108816110e9565b92915050565b6000806000806080858703121561112857611127610ee8565b5b600061113687828801610f91565b945050602061114787828801610f04565b935050604061115887828801610f04565b9250506060611169878288016110f9565b91505092959194509250565b600060208201905061118a6000830184611005565b92915050565b600082825260208201905092915050565b7f6f6e6c792061646d696e00000000000000000000000000000000000000000000600082015250565b60006111d7600a83611190565b91506111e2826111a1565b602082019050919050565b60006020820190508181036000830152611206816111ca565b9050919050565b7f746f6b656e206973206e6f7420737570706f7274656400000000000000000000600082015250565b6000611243601683611190565b915061124e8261120d565b602082019050919050565b6000602082019050818103600083015261127281611236565b9050919050565b7f6e6f7420656e6f7567682062616c616e63650000000000000000000000000000600082015250565b60006112af601283611190565b91506112ba82611279565b602082019050919050565b600060208201905081810360008301526112de816112a2565b9050919050565b7f4e487b7100000000000000000000000000000000000000000000000000000000600052601160045260246000fd5b600061131f82610eb4565b915061132a83610eb4565b92508282101561133d5761133c6112e5565b5b828203905092915050565b600060408201905061135d6000830185611005565b61136a6020830184610ebe565b9392505050565b60008115159050919050565b61138681611371565b811461139157600080fd5b50565b6000815190506113a38161137d565b92915050565b6000602082840312156113bf576113be610ee8565b5b60006113cd84828501611394565b91505092915050565b60006060820190506113eb6000830186611005565b6113f86020830185611005565b6114056040830184610ebe565b949350505050565b600061141882610eb4565b915061142383610eb4565b9250827fffffffffffffffffffffffffffffffffffffffffffffffffffffffffffffffff03821115611458576114576112e5565b5b828201905092915050565b7f63616e6e6f742074726164652044414900000000000000000000000000000000600082015250565b6000611499601083611190565b91506114a482611463565b602082019050919050565b600060208201905081810360008301526114c88161148c565b9050919050565b7f4e487b7100000000000000000000000000000000000000000000000000000000600052602160045260246000fd5b7f746f6b656e2062616c616e636520746f6f206c6f770000000000000000000000600082015250565b6000611534601583611190565b915061153f826114fe565b602082019050919050565b6000602082019050818103600083015261156381611527565b9050919050565b600061157582610eb4565b915061158083610eb4565b9250817fffffffffffffffffffffffffffffffffffffffffffffffffffffffffffffffff04831182151516156115b9576115b86112e5565b5b828202905092915050565b7f4441492062616c616e636520746f6f206c6f7700000000000000000000000000600082015250565b60006115fa601383611190565b9150611605826115c4565b602082019050919050565b60006020820190508181036000830152611629816115ed565b9050919050565b7f4e487b7100000000000000000000000000000000000000000000000000000000600052603260045260246000fd5b600061166a82610eb4565b91506000820361167d5761167c6112e5565b5b600182039050919050565b600061169382610eb4565b91507fffffffffffffffffffffffffffffffffffffffffffffffffffffffffffffffff82036116c5576116c46112e5565b5b60018201905091905056fea2646970667358221220d842ce55b5ac92f03e6e2f296585f3850687fb6f1ec6e6063900774d2e566ab164736f6c634300080e0033",
  "immutableReferences": {},
  "source": "// SPDX-License-Identifier: MIT\r\npragma solidity ^0.8.0;\r\nimport \"@openzeppelin/contracts/token/ERC20/IERC20.sol\";\r\n\r\ncontract Dex {\r\n    enum Side {\r\n        BUY,\r\n        SELL\r\n    }\r\n\r\n    struct Token {\r\n        bytes32 ticker;\r\n        address tokenAddress;\r\n    }\r\n\r\n    struct Order {\r\n        uint id;\r\n        Side side;\r\n        bytes32 ticker;\r\n        uint amount;\r\n        uint filled;\r\n        uint price;\r\n        uint date;\r\n    }\r\n\r\n    mapping(bytes32 => Token) public tokens;\r\n    mapping(address => mapping(bytes32 => uint)) traderBalances;\r\n    mapping(bytes32 => mapping(uint => Order[])) orderBook; // uint 0/1 for Side, should replace uint with some smaller uint8 probably\r\n    bytes32[] public tokensList;\r\n\r\n    address public admin;\r\n    uint public nextOrderId;\r\n\r\n    bytes32 constant DAI = bytes32('DAI');\r\n\r\n    constructor (address _admin) {\r\n        admin = _admin;\r\n    }\r\n\r\n    function addToken(bytes32 ticker, address tokenAddress) onlyAdmin external {\r\n        tokens[ticker] = Token(ticker, tokenAddress);\r\n        tokensList.push(ticker);\r\n    }\r\n\r\n    function deposit(uint amount, bytes32 ticker) tokenExist(ticker) external {\r\n        // transferFrom needs an approval -> from UI\r\n        IERC20(tokens[ticker].tokenAddress).transferFrom(\r\n            msg.sender,\r\n            address(this),\r\n            amount\r\n        );\r\n\r\n        traderBalances[msg.sender][ticker] += amount;\r\n    }\r\n\r\n    function withdraw (uint amount, bytes32 ticker) tokenExist(ticker) external {\r\n        require(traderBalances[msg.sender][ticker] >= amount, 'not enough balance');\r\n        traderBalances[msg.sender][ticker] -= amount;\r\n\r\n        IERC20(tokens[ticker].tokenAddress).transfer(msg.sender, amount);\r\n    }\r\n\r\n    function createLimitOrder(\r\n        bytes32 ticker,\r\n        uint amount,\r\n        uint price,\r\n        Side side\r\n    ) tokenExist(ticker) external {\r\n        require(ticker != DAI, 'cannot trade DAI');\r\n        if (side == Side.SELL) {\r\n            require(traderBalances[msg.sender][ticker] >= amount, 'token balance too low');\r\n\r\n        } else {\r\n            require(traderBalances[msg.sender][DAI] >= amount * price, 'DAI balance too low');\r\n        }\r\n\r\n        Order[] storage orders = orderBook[ticker][uint(side)];\r\n\r\n        orders.push(Order(\r\n            nextOrderId,\r\n            side,\r\n            ticker,\r\n            amount,\r\n            0,\r\n            price,\r\n            block.timestamp\r\n        ));\r\n\r\n        uint i = orders.length - 1;\r\n\r\n        while (i > 0) {\r\n            if(side == Side.SELL  && orders[i - 1].price > orders[i].price) {\r\n                break;\r\n            }\r\n            if(side == Side.SELL && orders[i - 1].price < orders[i].price) {\r\n                break;\r\n            }\r\n\r\n            Order memory order = orders[i - 1];\r\n            orders[i - 1] = orders[i];\r\n            orders[i] = order;\r\n\r\n            i--;\r\n        }\r\n        nextOrderId++;\r\n    }\r\n\r\n    modifier tokenExist (bytes32 ticker) {\r\n        require(tokens[ticker].tokenAddress != address(0), 'token is not supported');\r\n        _;\r\n    }\r\n\r\n    modifier onlyAdmin() {\r\n        require(msg.sender == admin, 'only admin');\r\n        _;\r\n    }\r\n}",
  "sourcePath": "D:\\web3\\wallet\\contracts\\Dex.sol",
  "compiler": {
    "name": "solc",
    "version": "0.8.14+commit.80d49f37.Emscripten.clang"
  },
  "schemaVersion": "3.4.7",
  "updatedAt": "2022-09-22T19:02:41.166Z",
  "networkType": "ethereum",
  "devdoc": {
    "kind": "dev",
    "methods": {},
    "version": 1
  },
  "userdoc": {
    "kind": "user",
    "methods": {},
    "version": 1
  }
}